{
  "_format": "hh-sol-artifact-1",
  "contractName": "Raffle",
  "sourceName": "contracts/Raffle.sol",
  "abi": [
    {
      "inputs": [],
      "stateMutability": "nonpayable",
      "type": "constructor"
    },
    {
      "anonymous": false,
      "inputs": [
        {
          "indexed": false,
          "internalType": "address",
          "name": "winnerAddress",
          "type": "address"
        }
      ],
      "name": "AnnouceWinner",
      "type": "event"
    },
    {
      "inputs": [],
      "name": "enter",
      "outputs": [],
      "stateMutability": "nonpayable",
      "type": "function"
    },
    {
      "inputs": [],
      "name": "getBalance",
      "outputs": [
        {
          "internalType": "uint256",
          "name": "",
          "type": "uint256"
        }
      ],
      "stateMutability": "view",
      "type": "function"
    },
    {
      "inputs": [],
      "name": "getPlayers",
      "outputs": [
        {
          "internalType": "address[]",
          "name": "",
          "type": "address[]"
        }
      ],
      "stateMutability": "view",
      "type": "function"
    },
    {
      "inputs": [],
      "name": "getRandomNumber",
      "outputs": [
        {
          "internalType": "uint256",
          "name": "",
          "type": "uint256"
        }
      ],
      "stateMutability": "view",
      "type": "function"
    },
    {
      "inputs": [],
      "name": "owner",
      "outputs": [
        {
          "internalType": "address",
          "name": "",
          "type": "address"
        }
      ],
      "stateMutability": "view",
      "type": "function"
    },
    {
      "inputs": [],
      "name": "pickWinner",
      "outputs": [],
      "stateMutability": "nonpayable",
      "type": "function"
    },
    {
      "inputs": [
        {
          "internalType": "uint256",
          "name": "",
          "type": "uint256"
        }
      ],
      "name": "players",
      "outputs": [
        {
          "internalType": "address",
          "name": "",
          "type": "address"
        }
      ],
      "stateMutability": "view",
      "type": "function"
    },
    {
      "inputs": [],
      "name": "quantity",
      "outputs": [
        {
          "internalType": "uint256",
          "name": "",
          "type": "uint256"
        }
      ],
      "stateMutability": "view",
      "type": "function"
    },
    {
      "inputs": [],
      "name": "winner",
      "outputs": [
        {
          "internalType": "address",
          "name": "",
          "type": "address"
        }
      ],
      "stateMutability": "view",
      "type": "function"
    }
  ],
  "bytecode": "0x608060405234801561001057600080fd5b5033600160006101000a81548173ffffffffffffffffffffffffffffffffffffffff021916908373ffffffffffffffffffffffffffffffffffffffff16021790555060016003819055506108c8806100696000396000f3fe608060405234801561001057600080fd5b50600436106100935760003560e01c80638da5cb5b116100665780638da5cb5b146100fc578063dbdff2c11461011a578063dfbf53ae14610138578063e97dcb6214610156578063f71d96cb1461016057610093565b806312065fe01461009857806317fc45e2146100b65780635d495aea146100d45780638b5b9ccc146100de575b600080fd5b6100a0610190565b6040516100ad91906104d9565b60405180910390f35b6100be610198565b6040516100cb91906104d9565b60405180910390f35b6100dc61019e565b005b6100e66102aa565b6040516100f391906105e4565b60405180910390f35b610104610338565b6040516101119190610615565b60405180910390f35b61012261035e565b60405161012f91906104d9565b60405180910390f35b6101406103b3565b60405161014d9190610615565b60405180910390f35b61015e6103d7565b005b61017a60048036038101906101759190610661565b610481565b6040516101879190610615565b60405180910390f35b600047905090565b60035481565b600160009054906101000a900473ffffffffffffffffffffffffffffffffffffffff1673ffffffffffffffffffffffffffffffffffffffff163373ffffffffffffffffffffffffffffffffffffffff16146101f857600080fd5b600060028054905061020861035e565b61021291906106bd565b90506001600354610223919061071d565b6003819055506002818154811061023d5761023c610751565b5b9060005260206000200160009054906101000a900473ffffffffffffffffffffffffffffffffffffffff166000806101000a81548173ffffffffffffffffffffffffffffffffffffffff021916908373ffffffffffffffffffffffffffffffffffffffff16021790555050565b6060600280548060200260200160405190810160405280929190818152602001828054801561032e57602002820191906000526020600020905b8160009054906101000a900473ffffffffffffffffffffffffffffffffffffffff1673ffffffffffffffffffffffffffffffffffffffff16815260200190600101908083116102e4575b5050505050905090565b600160009054906101000a900473ffffffffffffffffffffffffffffffffffffffff1681565b6000600160009054906101000a900473ffffffffffffffffffffffffffffffffffffffff16426040516020016103959291906107e9565b6040516020818303038152906040528051906020012060001c905090565b60008054906101000a900473ffffffffffffffffffffffffffffffffffffffff1681565b60006003541161041c576040517f08c379a000000000000000000000000000000000000000000000000000000000815260040161041390610872565b60405180910390fd5b6002339080600181540180825580915050600190039060005260206000200160009091909190916101000a81548173ffffffffffffffffffffffffffffffffffffffff021916908373ffffffffffffffffffffffffffffffffffffffff160217905550565b6002818154811061049157600080fd5b906000526020600020016000915054906101000a900473ffffffffffffffffffffffffffffffffffffffff1681565b6000819050919050565b6104d3816104c0565b82525050565b60006020820190506104ee60008301846104ca565b92915050565b600081519050919050565b600082825260208201905092915050565b6000819050602082019050919050565b600073ffffffffffffffffffffffffffffffffffffffff82169050919050565b600061054b82610520565b9050919050565b61055b81610540565b82525050565b600061056d8383610552565b60208301905092915050565b6000602082019050919050565b6000610591826104f4565b61059b81856104ff565b93506105a683610510565b8060005b838110156105d75781516105be8882610561565b97506105c983610579565b9250506001810190506105aa565b5085935050505092915050565b600060208201905081810360008301526105fe8184610586565b905092915050565b61060f81610540565b82525050565b600060208201905061062a6000830184610606565b92915050565b600080fd5b61063e816104c0565b811461064957600080fd5b50565b60008135905061065b81610635565b92915050565b60006020828403121561067757610676610630565b5b60006106858482850161064c565b91505092915050565b7f4e487b7100000000000000000000000000000000000000000000000000000000600052601260045260246000fd5b60006106c8826104c0565b91506106d3836104c0565b9250826106e3576106e261068e565b5b828206905092915050565b7f4e487b7100000000000000000000000000000000000000000000000000000000600052601160045260246000fd5b6000610728826104c0565b9150610733836104c0565b925082821015610746576107456106ee565b5b828203905092915050565b7f4e487b7100000000000000000000000000000000000000000000000000000000600052603260045260246000fd5b60008160601b9050919050565b600061079882610780565b9050919050565b60006107aa8261078d565b9050919050565b6107c26107bd82610540565b61079f565b82525050565b6000819050919050565b6107e36107de826104c0565b6107c8565b82525050565b60006107f582856107b1565b60148201915061080582846107d2565b6020820191508190509392505050565b600082825260208201905092915050565b7f4f7574206f662073746f636b0000000000000000000000000000000000000000600082015250565b600061085c600c83610815565b915061086782610826565b602082019050919050565b6000602082019050818103600083015261088b8161084f565b905091905056fea26469706673582212206197ff04111bd5091687d7cc934571d7c355135514309e8601e6ba7aecb5aba764736f6c634300080d0033",
  "linkReferences": {},
  "deployedLinkReferences": {}
}